{
  "_format": "hh-sol-artifact-1",
  "contractName": "SportsVoting",
  "sourceName": "contracts/SportsVoting.sol",
  "abi": [
    {
      "inputs": [
        {
          "internalType": "string[]",
          "name": "_teamNames",
          "type": "string[]"
        },
        {
          "internalType": "string[]",
          "name": "_sports",
          "type": "string[]"
        },
        {
          "internalType": "uint256",
          "name": "_durationInMinutes",
          "type": "uint256"
        }
      ],
      "stateMutability": "nonpayable",
      "type": "constructor"
    },
    {
      "inputs": [
        {
          "internalType": "string",
          "name": "_name",
          "type": "string"
        },
        {
          "internalType": "string",
          "name": "_sport",
          "type": "string"
        }
      ],
      "name": "addTeam",
      "outputs": [],
      "stateMutability": "nonpayable",
      "type": "function"
    },
    {
      "inputs": [],
      "name": "getAllTeams",
      "outputs": [
        {
          "components": [
            {
              "internalType": "string",
              "name": "name",
              "type": "string"
            },
            {
              "internalType": "string",
              "name": "sport",
              "type": "string"
            },
            {
              "internalType": "uint256",
              "name": "voteCount",
              "type": "uint256"
            }
          ],
          "internalType": "struct SportsVoting.Team[]",
          "name": "",
          "type": "tuple[]"
        }
      ],
      "stateMutability": "view",
      "type": "function"
    },
    {
      "inputs": [],
      "name": "getRemainingTime",
      "outputs": [
        {
          "internalType": "uint256",
          "name": "",
          "type": "uint256"
        }
      ],
      "stateMutability": "view",
      "type": "function"
    },
    {
      "inputs": [],
      "name": "getVotingStatus",
      "outputs": [
        {
          "internalType": "bool",
          "name": "",
          "type": "bool"
        }
      ],
      "stateMutability": "view",
      "type": "function"
    },
    {
      "inputs": [
        {
          "internalType": "uint256",
          "name": "",
          "type": "uint256"
        }
      ],
      "name": "teams",
      "outputs": [
        {
          "internalType": "string",
          "name": "name",
          "type": "string"
        },
        {
          "internalType": "string",
          "name": "sport",
          "type": "string"
        },
        {
          "internalType": "uint256",
          "name": "voteCount",
          "type": "uint256"
        }
      ],
      "stateMutability": "view",
      "type": "function"
    },
    {
      "inputs": [
        {
          "internalType": "uint256",
          "name": "_teamIndex",
          "type": "uint256"
        }
      ],
      "name": "vote",
      "outputs": [],
      "stateMutability": "nonpayable",
      "type": "function"
    },
    {
      "inputs": [
        {
          "internalType": "address",
          "name": "",
          "type": "address"
        }
      ],
      "name": "voters",
      "outputs": [
        {
          "internalType": "bool",
          "name": "",
          "type": "bool"
        }
      ],
      "stateMutability": "view",
      "type": "function"
    },
    {
      "inputs": [],
      "name": "votingEnd",
      "outputs": [
        {
          "internalType": "uint256",
          "name": "",
          "type": "uint256"
        }
      ],
      "stateMutability": "view",
      "type": "function"
    },
    {
      "inputs": [],
      "name": "votingStart",
      "outputs": [
        {
          "internalType": "uint256",
          "name": "",
          "type": "uint256"
        }
      ],
      "stateMutability": "view",
      "type": "function"
    }
  ],
  "bytecode": "0x60806040523480156200001157600080fd5b506040516200189f3803806200189f8339818101604052810190620000379190620003f3565b81518351146200007e576040517f08c379a00000000000000000000000000000000000000000000000000000000081526004016200007590620004e3565b60405180910390fd5b60005b8351811015620001b45760006040518060600160405280868481518110620000d2577f4e487b7100000000000000000000000000000000000000000000000000000000600052603260045260246000fd5b6020026020010151815260200185848151811062000119577f4e487b7100000000000000000000000000000000000000000000000000000000600052603260045260246000fd5b602002602001015181526020016000815250908060018154018082558091505060019003906000526020600020906003020160009091909190915060008201518160000190805190602001906200017292919062000228565b5060208201518160010190805190602001906200019192919062000228565b506040820151816002015550508080620001ab90620006e0565b91505062000081565b5033600160006101000a81548173ffffffffffffffffffffffffffffffffffffffff021916908373ffffffffffffffffffffffffffffffffffffffff16021790555042600381905550603c816200020c919062000609565b42620002199190620005ac565b600481905550505050620007d5565b8280546200023690620006aa565b90600052602060002090601f0160209004810192826200025a5760008555620002a6565b82601f106200027557805160ff1916838001178555620002a6565b82800160010185558215620002a6579182015b82811115620002a557825182559160200191906001019062000288565b5b509050620002b59190620002b9565b5090565b5b80821115620002d4576000816000905550600101620002ba565b5090565b6000620002ef620002e98462000539565b62000505565b9050808382526020820190508260005b85811015620003335781518501620003188882620003af565b845260208401935060208301925050600181019050620002ff565b5050509392505050565b6000620003546200034e8462000568565b62000505565b9050828152602081018484840111156200036d57600080fd5b6200037a84828562000674565b509392505050565b600082601f8301126200039457600080fd5b8151620003a6848260208601620002d8565b91505092915050565b600082601f830112620003c157600080fd5b8151620003d38482602086016200033d565b91505092915050565b600081519050620003ed81620007bb565b92915050565b6000806000606084860312156200040957600080fd5b600084015167ffffffffffffffff8111156200042457600080fd5b620004328682870162000382565b935050602084015167ffffffffffffffff8111156200045057600080fd5b6200045e8682870162000382565b92505060406200047186828701620003dc565b9150509250925092565b60006200048a6029836200059b565b91507f5465616d206e616d657320616e642073706f727473206c656e67746873206d7560008301527f7374206d617463682e00000000000000000000000000000000000000000000006020830152604082019050919050565b60006020820190508181036000830152620004fe816200047b565b9050919050565b6000604051905081810181811067ffffffffffffffff821117156200052f576200052e6200078c565b5b8060405250919050565b600067ffffffffffffffff8211156200055757620005566200078c565b5b602082029050602081019050919050565b600067ffffffffffffffff8211156200058657620005856200078c565b5b601f19601f8301169050602081019050919050565b600082825260208201905092915050565b6000620005b9826200066a565b9150620005c6836200066a565b9250827fffffffffffffffffffffffffffffffffffffffffffffffffffffffffffffffff03821115620005fe57620005fd6200072e565b5b828201905092915050565b600062000616826200066a565b915062000623836200066a565b9250817fffffffffffffffffffffffffffffffffffffffffffffffffffffffffffffffff04831182151516156200065f576200065e6200072e565b5b828202905092915050565b6000819050919050565b60005b838110156200069457808201518184015260208101905062000677565b83811115620006a4576000848401525b50505050565b60006002820490506001821680620006c357607f821691505b60208210811415620006da57620006d96200075d565b5b50919050565b6000620006ed826200066a565b91507fffffffffffffffffffffffffffffffffffffffffffffffffffffffffffffffff8214156200072357620007226200072e565b5b600182019050919050565b7f4e487b7100000000000000000000000000000000000000000000000000000000600052601160045260246000fd5b7f4e487b7100000000000000000000000000000000000000000000000000000000600052602260045260246000fd5b7f4e487b7100000000000000000000000000000000000000000000000000000000600052604160045260246000fd5b620007c6816200066a565b8114620007d257600080fd5b50565b6110ba80620007e56000396000f3fe608060405234801561001057600080fd5b50600436106100935760003560e01c80633ed2b77a116100665780633ed2b77a1461010c578063581c281c1461013e57806385a386351461015c578063a3ec138d1461017a578063efb98bcf146101aa57610093565b80630121b93f146100985780630d4fb803146100b4578063101158af146100d057806322ac35bc146100ee575b600080fd5b6100b260048036038101906100ad91906109cd565b6101c8565b005b6100ce60048036038101906100c99190610961565b610358565b005b6100d8610479565b6040516100e59190610d9d565b60405180910390f35b6100f661047f565b6040516101039190610c9b565b60405180910390f35b610126600480360381019061012191906109cd565b61060c565b60405161013593929190610cd8565b60405180910390f35b610146610756565b6040516101539190610cbd565b60405180910390f35b610164610770565b6040516101719190610d9d565b60405180910390f35b610194600480360381019061018f9190610938565b610776565b6040516101a19190610cbd565b60405180910390f35b6101b2610796565b6040516101bf9190610d9d565b60405180910390f35b600260003373ffffffffffffffffffffffffffffffffffffffff1673ffffffffffffffffffffffffffffffffffffffff16815260200190815260200160002060009054906101000a900460ff1615610255576040517f08c379a000000000000000000000000000000000000000000000000000000000815260040161024c90610d1d565b60405180910390fd5b600080549050811061029c576040517f08c379a000000000000000000000000000000000000000000000000000000000815260040161029390610d5d565b60405180910390fd5b600081815481106102d6577f4e487b7100000000000000000000000000000000000000000000000000000000600052603260045260246000fd5b906000526020600020906003020160020160008154809291906102f890610f6f565b91905055506001600260003373ffffffffffffffffffffffffffffffffffffffff1673ffffffffffffffffffffffffffffffffffffffff16815260200190815260200160002060006101000a81548160ff02191690831515021790555050565b600160009054906101000a900473ffffffffffffffffffffffffffffffffffffffff1673ffffffffffffffffffffffffffffffffffffffff163373ffffffffffffffffffffffffffffffffffffffff16146103e8576040517f08c379a00000000000000000000000000000000000000000000000000000000081526004016103df90610d3d565b60405180910390fd5b6000604051806060016040528084815260200183815260200160008152509080600181540180825580915050600190039060005260206000209060030201600090919091909150600082015181600001908051906020019061044b929190610803565b506020820151816001019080519060200190610468929190610803565b506040820151816002015550505050565b60035481565b60606000805480602002602001604051908101604052809291908181526020016000905b8282101561060357838290600052602060002090600302016040518060600160405290816000820180546104d690610f3d565b80601f016020809104026020016040519081016040528092919081815260200182805461050290610f3d565b801561054f5780601f106105245761010080835404028352916020019161054f565b820191906000526020600020905b81548152906001019060200180831161053257829003601f168201915b5050505050815260200160018201805461056890610f3d565b80601f016020809104026020016040519081016040528092919081815260200182805461059490610f3d565b80156105e15780601f106105b6576101008083540402835291602001916105e1565b820191906000526020600020905b8154815290600101906020018083116105c457829003601f168201915b50505050508152602001600282015481525050815260200190600101906104a3565b50505050905090565b6000818154811061061c57600080fd5b906000526020600020906003020160009150905080600001805461063f90610f3d565b80601f016020809104026020016040519081016040528092919081815260200182805461066b90610f3d565b80156106b85780601f1061068d576101008083540402835291602001916106b8565b820191906000526020600020905b81548152906001019060200180831161069b57829003601f168201915b5050505050908060010180546106cd90610f3d565b80601f01602080910402602001604051908101604052809291908181526020018280546106f990610f3d565b80156107465780601f1061071b57610100808354040283529160200191610746565b820191906000526020600020905b81548152906001019060200180831161072957829003601f168201915b5050505050908060020154905083565b6000600354421015801561076b575060045442105b905090565b60045481565b60026020528060005260406000206000915054906101000a900460ff1681565b60006003544210156107dd576040517f08c379a00000000000000000000000000000000000000000000000000000000081526004016107d490610d7d565b60405180910390fd5b60045442106107ef5760009050610800565b426004546107fd9190610e7f565b90505b90565b82805461080f90610f3d565b90600052602060002090601f0160209004810192826108315760008555610878565b82601f1061084a57805160ff1916838001178555610878565b82800160010185558215610878579182015b8281111561087757825182559160200191906001019061085c565b5b5090506108859190610889565b5090565b5b808211156108a257600081600090555060010161088a565b5090565b60006108b96108b484610de9565b610db8565b9050828152602081018484840111156108d157600080fd5b6108dc848285610efb565b509392505050565b6000813590506108f381611056565b92915050565b600082601f83011261090a57600080fd5b813561091a8482602086016108a6565b91505092915050565b6000813590506109328161106d565b92915050565b60006020828403121561094a57600080fd5b6000610958848285016108e4565b91505092915050565b6000806040838503121561097457600080fd5b600083013567ffffffffffffffff81111561098e57600080fd5b61099a858286016108f9565b925050602083013567ffffffffffffffff8111156109b757600080fd5b6109c3858286016108f9565b9150509250929050565b6000602082840312156109df57600080fd5b60006109ed84828501610923565b91505092915050565b6000610a028383610c26565b905092915050565b6000610a1582610e29565b610a1f8185610e4c565b935083602082028501610a3185610e19565b8060005b85811015610a6d5784840389528151610a4e85826109f6565b9450610a5983610e3f565b925060208a01995050600181019050610a35565b50829750879550505050505092915050565b610a8881610ec5565b82525050565b6000610a9982610e34565b610aa38185610e5d565b9350610ab3818560208601610f0a565b610abc81611045565b840191505092915050565b6000610ad282610e34565b610adc8185610e6e565b9350610aec818560208601610f0a565b610af581611045565b840191505092915050565b6000610b0d601783610e6e565b91507f596f75206861766520616c726561647920766f7465642e0000000000000000006000830152602082019050919050565b6000610b4d602383610e6e565b91507f4f6e6c79206f776e65722063616e20706572666f726d2074686973206163746960008301527f6f6e2e00000000000000000000000000000000000000000000000000000000006020830152604082019050919050565b6000610bb3601383610e6e565b91507f496e76616c6964207465616d20696e6465782e000000000000000000000000006000830152602082019050919050565b6000610bf3601b83610e6e565b91507f566f74696e6720686173206e6f742073746172746564207965742e00000000006000830152602082019050919050565b60006060830160008301518482036000860152610c438282610a8e565b91505060208301518482036020860152610c5d8282610a8e565b9150506040830151610c726040860182610c7d565b508091505092915050565b610c8681610ef1565b82525050565b610c9581610ef1565b82525050565b60006020820190508181036000830152610cb58184610a0a565b905092915050565b6000602082019050610cd26000830184610a7f565b92915050565b60006060820190508181036000830152610cf28186610ac7565b90508181036020830152610d068185610ac7565b9050610d156040830184610c8c565b949350505050565b60006020820190508181036000830152610d3681610b00565b9050919050565b60006020820190508181036000830152610d5681610b40565b9050919050565b60006020820190508181036000830152610d7681610ba6565b9050919050565b60006020820190508181036000830152610d9681610be6565b9050919050565b6000602082019050610db26000830184610c8c565b92915050565b6000604051905081810181811067ffffffffffffffff82111715610ddf57610dde611016565b5b8060405250919050565b600067ffffffffffffffff821115610e0457610e03611016565b5b601f19601f8301169050602081019050919050565b6000819050602082019050919050565b600081519050919050565b600081519050919050565b6000602082019050919050565b600082825260208201905092915050565b600082825260208201905092915050565b600082825260208201905092915050565b6000610e8a82610ef1565b9150610e9583610ef1565b925082821015610ea857610ea7610fb8565b5b828203905092915050565b6000610ebe82610ed1565b9050919050565b60008115159050919050565b600073ffffffffffffffffffffffffffffffffffffffff82169050919050565b6000819050919050565b82818337600083830152505050565b60005b83811015610f28578082015181840152602081019050610f0d565b83811115610f37576000848401525b50505050565b60006002820490506001821680610f5557607f821691505b60208210811415610f6957610f68610fe7565b5b50919050565b6000610f7a82610ef1565b91507fffffffffffffffffffffffffffffffffffffffffffffffffffffffffffffffff821415610fad57610fac610fb8565b5b600182019050919050565b7f4e487b7100000000000000000000000000000000000000000000000000000000600052601160045260246000fd5b7f4e487b7100000000000000000000000000000000000000000000000000000000600052602260045260246000fd5b7f4e487b7100000000000000000000000000000000000000000000000000000000600052604160045260246000fd5b6000601f19601f8301169050919050565b61105f81610eb3565b811461106a57600080fd5b50565b61107681610ef1565b811461108157600080fd5b5056fea2646970667358221220593df718f54225a12ff47662e5403a5fed4ad032d1911747930638c0c1907b2264736f6c63430008000033",
  "linkReferences": {},
  "deployedLinkReferences": {}
}